:1000000098060020611600005D1600005D160000D5
:1000100000000000000000000000000000000000E0
:100020000000000000000000000000005D1600005D
:1000300000000000000000005D1600005D160000DA
:100040005D1600005D160000490300007506000003
:100050004D0600000D0400005D1600005D16000056
:100060005D160000110C0000210C0000310C000096
:10007000410C0000510C0000610C00005D160000F6
:100080005D160000B9040000C9040000D904000096
:100090004D0500005D0500006D0500007D050000B8
:1000A0008D050000E1010000F10100005107000092
:1000B000010200009D0500005D16000010B5064C11
:1000C0002378002B07D1054B002B02D0044800E019
:1000D00000BF0123237010BD0400002000000000B9
:1000E00074280000084B10B5002B03D007490848BE
:1000F00000E000BF07480368002B00D110BD064B8D
:10010000002BFBD09847F9E7000000000800002012
:1001100074280000742800000000000070B5800002
:100120002E4BC45823689D79EDB2EA072DD5E27EA7
:10013000D2072AD5A27ED20727D501229A716269F9
:10014000931C636123689B8C9BB21380238B013BC0
:100150009BB22383002B15D0637F002B15D0226820
:10016000D3795BB2002B10DB138C9BB2002BFBD13D
:10017000137E02210B4313762268138C9BB2002B53
:10018000FBD102E0237F052B16D06B0708D5042393
:1001900022689371E37E9B0702D5A37E9B0714D44C
:1001A000AB0708D5022322689371E37E5B0702D573
:1001B000A37E5B070DD470BD002323770133226833
:1001C00013712000A3689847DFE72000E368984791
:1001D000E6E7236920009847EDE7C0465400002079
:1001E00010B50020014B984710BDC0461D0100000E
:1001F00010B50120014B984710BDC0461D010000FD
:1002000070B5274B1C682568AB79DB0707D5012340
:10021000AB712300143302D0637C002B31D1AB7956
:100220009B0738D50223AB71A3899BB2002B2CD03E
:10023000E3899BB25A1C92B2E2815B00A2689446A9
:1002400063441B889BB2AB81A389013B9BB2A38112
:10025000A3899BB2002B18D100222033E2541E3B0D
:100260002B71AB71802149057E330E4AD15023009A
:10027000143310D0A37C002B0AD00020E3699847E8
:1002800006E00020A3699847C9E72300143302D091
:10029000237C002B00D170BD636900209847FAE7EA
:1002A0005C00002000E100E0064A137802210B43C5
:1002B0001370012053681942FCD153681842F9D1D8
:1002C0007047C0460028004000B583B0174A516906
:1002D0008023DB000B43536101A900230B70022034
:1002E000134B98470220134B9847134A1378012168
:1002F0000B4313700131012053681942FCD153683C
:100300001842F9D10C4A137810218B4313700B4B10
:1003100019004031002204C38B42FCD10822084B53
:100320001A60084B984703B000BDC0460008004063
:100330000515000095140000002800406000002012
:1003400000E100E0A9020000F8B5DE4657464E463F
:100350004546E0B52B4B1B689A461E68DB8E52461D
:10036000928E1A409046B289738913401AB2002ABD
:1003700008DBFF271F402AD0002401239946FE33C3
:100380009B4614E043465B0507D41F4BB3813CBC3E
:1003900090469946A246AB46F8BD53461B6B98471C
:1003A000F3E75B461D40B5810134082CEFD02300F4
:1003B0004D46A5402F42F4D04246224149461142C3
:1003C000EFD002339B0052469B589847E9E7DA0585
:1003D0000AD54346DB0503D480235B00B381D6E70F
:1003E00053469B6A9847F7E79B05D0D543469B0544
:1003F00003D480239B00B381C9E75346DB6A984747
:10040000F7E7C046A00000200080FFFFF0B5C64619
:1004100000B5144B1F68144B9E79F6B2DB681A02C4
:1004200002D5FF22120613433A695B42136000248F
:1004300001250D4B984602E00134042C0FD0E0B2A8
:100440003300E3401D42F7D02B00A340DBB242460D
:100450009371A300FB58002BEED09847ECE704BC47
:100460009046F0BDA400002000300040F0B5C64624
:1004700000B580000E4BC7583B68DE6ABB6B7A6BD9
:1004800013401E4000240B4B984602E00434302CED
:100490000AD04346E5583542F8D03B195B6838002E
:1004A00098473B68DD62F1E704BC9046F0BDC0466A
:1004B000A80000206825000010B50020014B9847D7
:1004C00010BDC0466D04000010B50120014B9847D7
:1004D00010BDC0466D04000010B50220014B9847C6
:1004E00010BDC0466D04000070B58000164BC458A6
:1004F00023689D7A227E637E13401D40EB0706D45D
:10050000AB070BD4EB0610D4AB0615D470BD20009E
:10051000A3689847012322689372F1E72000E368FB
:100520009847022322689372ECE7200023699847DA
:10053000102322689372E7E72000636998472368D5
:1005400020229A72E2E7C046B400002010B50020D5
:10055000014B984710BDC046E904000010B50120CA
:10056000014B984710BDC046E904000010B50220B9
:10057000014B984710BDC046E904000010B50320A8
:10058000014B984710BDC046E904000010B5042097
:10059000014B984710BDC046E904000070B52A4BD6
:1005A0001C682368DD79EDB2EA0718D5E27ED20730
:1005B00015D5A27ED20712D50122DA716269131D08
:1005C000636123685B6A1B021B121360238B013B70
:1005D0009BB22383002B22D0637F002B16D16B07A5
:1005E00008D504232268D371E37E9B0702D5A37E3E
:1005F0009B0720D4AB0708D502232268D371E37E82
:100600005B0702D5A37E5B0719D470BD23681A6A05
:10061000002AFCD11A7F02210A431A77DFE7237FE1
:10062000052BDCD10023237701332268537120008E
:10063000A3689847D3E72000E3689847DAE723697F
:1006400020009847E1E7C046C800002010B5074BDE
:100650009B7ADB0709D5064B1B689A68002A04D0F1
:100660000121024A91729B68984710BD002C0040FE
:10067000CC00002070B50022104B1A7000231049E6
:100680001F25104E0D4C0AE00D4908E02378013378
:10069000DBB223700F2B10D800211F2BF4D92800B8
:1006A00018400122824048691042EFD04A619B0005
:1006B0009B59002BEAD09847E8E770BDD000002096
:1006C000002800406000002070B580001F4BC45817
:1006D00023689D79227F637F13401D40EB070AD476
:1006E000AB070FD4EB0614D46B0719D42B071ED419
:1006F000AB0623D470BD20006368984701232268AD
:100700009371EDE72000A368984702232268937154
:10071000E8E7200063699847102322689371E3E7B4
:100720002000E3689847042322689371DEE72000E5
:1007300023699847082322689371D9E72000A369A9
:100740009847236820229A71D4E7C046D40000203D
:1007500010B50020014B984710BDC046C9060000E7
:100760000C4B1B68002B06D1EFF31083002B07D036
:100770000022094B1A70074A13680133136070474F
:1007800072B6BFF35F8F0022044B1A700132024B26
:100790001A70F0E720000020240000200000002054
:1007A000084B1A68013A1A601B68002B09D1064BE6
:1007B0001B78002B05D00122044B1A70BFF35F8F0A
:1007C00062B67047200000202400002000000020B6
:1007D000F0B583B001AC012565700027A7702570C6
:1007E00021000F20064EB047802212028223DB0533
:1007F0009A612770657021001C20B04703B0F0BDDE
:100800000508000000B583B001AB80221A700A7899
:100810005A704A789A708A78DA701900014B9847B2
:1008200003B000BD01160000F0B5DE4657464E4647
:100830004546E0B587B08046049116001F000022AF
:10084000002300218B463F240120210000960197C0
:100850005C4603944446059413E02024641A050082
:10086000E540A84614E0009C019D121BAB415C468C
:100870004D462C43A346039C45462C430394013923
:1008800025D3202464420C19E7D40500A540A846CE
:1008900004008C40A14692185B4114001D00059E87
:1008A0004F463E40B446049E47463E40B2466646EA
:1008B00057463E4303D00600264332002B00009CDF
:1008C000019D9D42DBD8CED19442D8D8CBE7039B83
:1008D0005846190007B03CBC90469946A246AB4624
:1008E000F0BD10B5490840230024814202D218000F
:1008F00010BD1C00091A631C9BB28842F9D9402321
:10090000FF2CF4D814800023F1E70000F0B583B089
:100910000F00160008AA117804004C434022BC4284
:1009200002D9100003B0F0BD002B14D10200080062
:100930000021194CA04701003A0000230020174C69
:10094000A04700220123121A8B41120C1B041A43E8
:1009500032800022E5E70022012BF9D10A000023B2
:1009600000210D4CA04702000B00009201933800BB
:1009700000210A4CA047050080239B014022984299
:10098000CFD8790FF800009A019BA047EA00821A9D
:10099000D2B252032A43DBE7B92400002908000041
:1009A00010B582B004000E4B1B78002B07D0002935
:1009B00005D10B4B5B78834210D01D200CE001A9C0
:1009C0000C701220074B98471220074B9847044B96
:1009D0005C7001221A70002002B010BD0020FBE7FD
:1009E000280000200515000095140000404B984297
:1009F00031D00AD93F4B98424DD03F4B98425AD004
:100A00003E4B984237D0002070473D4B98420CD067
:100A10003C4B9842F7D1012917D000295DD002291B
:100A200015D0032915D00020EEE7012907D00029B1
:100A300051D0022905D0032905D00020E4E732482F
:100A4000E2E73248E0E73248DEE73248DCE73248A6
:100A5000DAE73248D8E7012907D000293FD0022938
:100A600005D0032905D00020CEE72D48CCE72D483E
:100A7000CAE72D48C8E7012907D0002931D002294B
:100A800005D0032905D00020BEE72848BCE7284848
:100A9000BAE72848B8E7012907D0002923D002295E
:100AA00005D0032905D00020AEE72348ACE7234852
:100AB000AAE72348A8E7012907D0002915D0022971
:100AC00005D0032905D000209EE71E489CE71E485C
:100AD0009AE71E4898E71E4896E71E4894E71E4886
:100AE00092E71E4890E71E488EE71E488CE7C046F6
:100AF000000C0042001400420018004200100042A6
:100B00000004004200080042030005000300060044
:100B1000030007000200110002001200020013008F
:100B200002000D0002000E0002000F00020017007C
:100B300002001800020019000300290003002A0027
:100B400003002B000300230003002000030021000A
:100B5000030004000200100002000C000200160056
:100B6000030028000300220030B587B00B4B6A4613
:100B700032CB32C232CB32C2009B83420BD0012334
:100B80009A0069465258824206D00133062BF7D1AB
:100B9000002007B030BD0023D8B2FAE79825000046
:100BA00070470000F0B50A4B1B78002B0CD1094FA1
:100BB000094E0A4D0024DE515A1914600433182BD3
:100BC000F9D10122024B1A708000024BC150F0BDD6
:100BD0002A0000202C000020A10B0000D8000020DB
:100BE00000B583B009236A46137001335370013393
:100BF00093700133D3700133137101335371034B7D
:100C000098476B46185603B000BDC046690B0000FC
:100C100010B5024B1B680020984710BD2C00002027
:100C200010B5024B5B680120984710BD2C000020D6
:100C300010B5024B9B680220984710BD2C00002085
:100C400010B5024BDB680320984710BD2C00002034
:100C500010B5024B1B690420984710BD2C000020E2
:100C600010B5024B5B690520984710BD2C00002091
:100C7000F0B5DE4657464E464546E0B591B0050014
:100C80000C00160029600800D34B984705280DD0AA
:100C90000700133722680523D20709D5180011B0C1
:100CA0003CBC90469946A246AB46F0BD1927F1E7F9
:100CB000226817339207F1D4C84AD16901301B3B2F
:100CC00083400B43D3610FA935239846F35C0B7027
:100CD000FFB23800C24B98473800C24B9847434692
:100CE000F05C0021C04B9847F37A6B712C23F35CC6
:100CF000AB712D23F35CEB71F37E2B722423F35C39
:100D00006B722B6802931800B34B98471330002284
:100D10000E2306A98C4663441A80338A98468023A2
:100D2000DB01984500D1C6E00ED9C023DB01984510
:100D300000D1BBE080231B02984500D06AE1032369
:100D400006930023079308E080239B01984500D079
:100D500060E1102306930F3B079333680593F36814
:100D6000039373690493337E9B462E23F35C9A4668
:100D700073689946002B00D1CAE080235B05994532
:100D800000D1ADE0737E002B02D0B37E029A937344
:100D90002A68029FD369002BFCD102970E3306A963
:100DA0008C4663441B88BB81059A039B1A43049BB2
:100DB0001A434B461A4343461A435B461B021A43E7
:100DC00053465B071A432F23F35C002B01D10433F6
:100DD0001A43737E9B022421715C49020B43262136
:100DE000715C09020B432C21715C49040B432D21DA
:100DF000715C09040B43B07AF17A084318433389D4
:100E0000FF2B00D1AAE0802149040A43184302992C
:100E10008B689C46338C718C0B431F000721634603
:100E200019403B000B4302998B60F369002B02D001
:100E30006E490A401A433423F35C002B03D16C4BF8
:100E40009B789B0701D580231A432968029FCB69B1
:100E5000002BFCD178602968CB69002BFCD13A606B
:100E60003B68F02212051340E022D20493420AD0DC
:100E7000BB6807229343BB60BA682523F15C1E3B25
:100E80000B401343BB600EAB80221A7000225A70D5
:100E9000DA709A70B36B0A93F36B0B93336C0C9309
:100EA000736C02930D9300270AAE66E00823069345
:100EB000073B079351E733680593F368039373691E
:100EC0000493337E9B462E23F35C9A4673689946BF
:100ED000002B19D080235B05994501D0002327E022
:100EE0002F23F35C002B00D04CE7B36A1F00C0B285
:100EF000404B984701000E2206AB9C4662443800E6
:100F00003D4B9847030013E0082306930023079303
:100F10002F23F35C002B0FD0069B0093079B0E2220
:100F200006A98C466244316BB06A344FB84703005F
:100F3000002B00D0B2E625E7B36A1F00C0B22D4BEC
:100F400098470100069B0093079B0E2206A8844643
:100F500062443800294FB8470300E9E7F37E002BCD
:100F600000D154E78023DB041A4350E72000244BD0
:100F7000984707E00137042F0DD0F9B2BB0098590C
:100F80000028F3D0431CF5D00EA90870000CC0B2A5
:100F90001C4B9847EEE70023EB602B616B61AB6164
:100FA000EB612B62AB626B620022EB85AB85303369
:100FB000EA540133EA540133EA540133EA5428680D
:100FC000054B984704001049104B9847A400104B5C
:100FD000E550002362E6C046690B000000080040AF
:100FE0000515000095140000A1090000FFFFFFF0A7
:100FF0000020004129150000E30800000D09000051
:10100000ED09000001160000BD100000A50B000056
:10101000D800002010230693002307939DE6C046C6
:10102000C2791C23002A01D118007047C28D92B2E8
:10103000173B002AF8D10368DA69002AFCD1198528
:1010400002211A7E0A42FCD00023EDE782791C239C
:10105000002A01D118007047828D92B2173B002AF6
:10106000F8D10268107E4007F4D5D369002BFCD17B
:10107000538BDBB258061DD0980703D50223538348
:101080001833E7E7580703D5042353831A33E1E7FE
:10109000D80703D5012353831233DBE7D80603D5E2
:1010A000102353833233D5E79B0603D52023538384
:1010B0002133CFE7138D0B800023CBE7F8B58000F9
:1010C000644BC5582C68E369002BFCD1237EA67DB8
:1010D0001E403023EB5C3122AF5C1F40F30722D56A
:1010E000EB8D9BB2002B1CD0AA6A1378DBB2511C8B
:1010F000A962697901290ED09BB2DB05DB0D23853E
:10110000EB8D013B9BB2EB85002B0CD1013323759A
:101110000133A37507E0517809020B430232AA623A
:10112000EBE701232375B30706D5022323750022BD
:101130003133EA54FB071ED4730768D5AB8D9BB2DD
:10114000002B62D0638BDBB21A0718D47F221340C6
:101150005A0601D540229343002B33D09A0711D56C
:101160001A223223EA54303B63837B074FD5280091
:101170006B6998474BE02800EB689847DCE77722DB
:101180001340E5E75A0705D51E223223EA542E3BC9
:101190006383EAE7DA0705D513223223EA54313BA9
:1011A0006383E2E7DA0605D542223223EA54223B82
:1011B0006383DAE79B06D8D541223223EA54123BF7
:1011C0006383D2E7238DDB05DB0DDAB2696A0A702F
:1011D0006A6A511C69626979012910D0AB8D013BA3
:1011E0009BB2AB85002B12D10433237500222E3322
:1011F000EA54BB070BD528002B69984707E01B0A68
:1012000053706B6A01336B62E8E704232375F306BE
:1012100004D5102323752376FB060ED4B30604D51C
:101220002023237523763B070BD4330704D50823EB
:1012300023752376BB0608D4F8BD2800EB699847D0
:10124000ECE72800AB699847EFE72B6A280098473E
:10125000F2E7C046D800002010B5072803D8800068
:101260000F4B1B589F46002018E00E4B586815E0A6
:101270000D4B597D0907090F01310C480C4B98475C
:101280000CE0084B986809E0074B1B7F00209B0788
:1012900004D5044B186801E08020000210BDC04650
:1012A000B02500004400002000100040006CDC026B
:1012B000A123000000B585B00322104B9A60104AAC
:1012C00053681E218B4353600E4A137D62310B43DA
:1012D00013750D4B984701230C4A137101A94B60FC
:1012E00000234B7006220A700B724B720020084BD1
:1012F00098470020074B984705B000BD00180040F4
:101300000040004100100040191300000008004098
:101310003D130000E9130000064A536980210B4386
:1013200053610122044B1A7019000B781342FCD14F
:101330007047C04600080040001C004070B5040023
:101340000D784B78002B02D08023DB001D434B7AB5
:10135000002B02D080231B011D43486801280FD9B0
:10136000431E184231D102282DD902230022013216
:101370005B009842FBD880235B011D431204154398
:101380000B7A002B02D080239B011D430426A6402C
:101390001149124A4B6813401E42FBD1104B98472B
:1013A000A4000D4B9C466444226A80235B001A40D3
:1013B0002A4322626146094A4B6813401E42FBD110
:1013C000084B984770BD0022D5E7000480239B009E
:1013D00018430543D4E7C046001C0040FC0700004A
:1013E00061070000A107000010B50400042282403C
:1013F00009480A4943680B401A42FBD1084B9847F9
:10140000A400054B9C466444226A80235B0013437E
:101410002362044B984710BD001C0040FC070000ED
:1014200061070000A1070000F8B504000422824013
:101430001248134943680B401A42FBD1114B98479D
:101440000E4F0834A400E0594007400F0E4B984758
:101450000600E559ED04ED0FE459240C0B4B9847B9
:10146000002D07D1012C07D921003000084B9847E7
:10147000060001E00134E6403000F8BD001C0040E9
:10148000FC0700006107000059120000A1070000DE
:10149000A123000010B50400094B9847A000094B98
:1014A0009C4660448022835840210B438350403146
:1014B000403A43581A42FCD0034B984710BDC046EF
:1014C00061070000001C0040A107000010B50400E7
:1014D000094B9847A000094B9C46604480228358E2
:1014E00040218B4383504031403A43581A42FCD14B
:1014F000034B984710BDC04661070000001C004028
:10150000A107000070B504000D00054B98472A782C
:101510000F2313402034A400024AA35070BDC046DC
:10152000CD140000001C004010B50400064B984785
:101530002034A400054BE4582407240F044B98479B
:101540002000044B984710BD61070000001C0040BC
:10155000A10700002914000030B5D378002B35D145
:101560001378802B29D01B068024640223435478EF
:101570000225AC4306D19478002C20D18024A4020B
:10158000234341605478013C012C1CD90D042D0CDF
:10159000A024E4052C431C4384620D0CD0242406B3
:1015A0002C431C438462D478002C22D15B031CD5CD
:1015B0009378012B1ED0416117E00023D7E7C024A8
:1015C000E4022343DDE70D4C2340DFE741600C04D8
:1015D000240CA023DB05234383620C0CD0231B06C1
:1015E00023438362D378002B03D15378013B012B33
:1015F00002D930BD8161F8E78160FAE7FFFFFBFFA8
:1016000010B50A00C1090023002905D14309DB01F7
:101610008221C9058C4663441F242040012181405A
:101620001800014B984710BD591500007047000085
:1016300010B5054B9847054B9847054B9847054B08
:101640009847054B984710BDB5120000D107000020
:101650002D160000C90200002D160000FEE7000054
:1016600010B5174A174B9A4211D01A00164B9A42DE
:101670000DD2164A03339B1A9B0801339B000022AC
:1016800010480F498C58845004329A42FAD1104ABB
:10169000104B9A420AD2D3430E495B1803218B4365
:1016A00004339B18002102C29342FCD10A4AFF2155
:1016B0000A4B8B4393600A4B98470A4B9847FEE7C7
:1016C0007428000000000020040000200400002016
:1016D000040000209802002000ED00E0000000005F
:1016E0000D250000A118000084B0F0B5DE46574675
:1016F0004E464546E0B583B00C900D910E920F9387
:1017000081236B44994687266E441F00614C624DCD
:1017100038782100A8470137B742F9D131236B440B
:101720009A4637266E445B4C5B4D3B0057469846C5
:1017300038782100A8470137B742F9D14346B84667
:101740001F0000226B46DA7101326B469A71012646
:101750001F239B4612E05A460240012191409961A5
:101760004E494D4B9847296A6B469A790C40611E49
:101770008C4114409C710136072E24D00CABF35CD5
:10178000DA090025002A05D15D09ED018222D20582
:10179000944665445A46134001249C402B6A6A468D
:1017A000D1792340581E83410B43D37120ABF05CA9
:1017B000C2090023002ACED14309DB018222D205CF
:1017C00094466344C7E7334C334D4E46307821008E
:1017D000A8470136BE42F9D101261F25012713E093
:1017E0002A0002403900914099612C492A4B9847C0
:1017F0004B46196A6B469A790C40611E8C41144025
:101800009C710136072E25D020ABF35CDA0900214C
:101810008946002A05D15A09D2018221C905894683
:1018200091442B403C009C404B461B6A6A46D17950
:101830002340581E83410B43D3710CABF05CC209AB
:101840000023002ACCD14309DB018222D205944631
:101850006344C5E70F4C104D56464746307821008B
:10186000A8470136BE42F9D16B4607331B780020EA
:10187000002B05D16B469879013843425841C0B2DC
:1018800003B03CBC90469946A246AB46F0BC08BCAF
:1018900004B01847002800000508000004280000D4
:1018A000F0B5A7B024AF364D10AE50223549300008
:1018B000354CA0472900103140226846A0472868CF
:1018C0006968AA68EB68314DA847314D50222D490F
:1018D0003000A0472900103140226846A047286800
:1018E0006968AA68EB68294DA8472A4D50222A4901
:1018F0003000A0472900103140226846A0472868E0
:101900006968AA68EB68214DA847244D50222449F4
:101910003000A0472900103140226846A0472868BF
:101920006968AA68EB68194CA0471E4B1A68531CDB
:1019300017D08223DB0580214905596006245C20ED
:101940001C5499611B6ADB00DB0FFB71FB79002BD8
:1019500007D08023DB01196881F3088812498B6066
:101960001047124B9847124B9847124CA04700283B
:10197000FCD00120104B9847104CA047FDE7C04613
:1019800070260000B027000055250000E916000071
:1019900020260000D0250000C026000010270000EF
:1019A000602700000440000000ED00E03116000058
:1019B0003D1E0000C51F0000C1190000951A00005F
:1019C000012800D07047024A024B1A60FAE7C0466D
:1019D0003828000048010020F0B585B01F4B1B7867
:1019E000002B36D004291BD0022922D000784D00CC
:1019F00004AB5A190B3A002D17D101A830230370FC
:101A000048334370013149006E3B43544519033359
:101A1000EB700231124B1B68DB68984705B0F0BDD4
:101A200000684D0004AB5A190B3A00240F263027EA
:101A300008E00088F5E7373313700009013A0134F4
:101A4000AC42DAD233000340092BF4D83B43137085
:101A5000F3E7034B1B68DB689847DFE75000002083
:101A60004801002080B500AF72B6BFF35F8F00223F
:101A7000064B1A70EFF30883054A1360036883F37B
:101A8000088843681847BD4680BDC0460000002056
:101A90004C010020F0B5DE4657464E464546E0B5BF
:101AA00083B000AF0022CD4B1A607A32CC4B1A7053
:101AB000CC4B9A46CC4B9B46CC4CC94B98465B468C
:101AC0001B681B69402150469847C94B1860C74B9B
:101AD00052461A600022C74B1A600028EFD0C34D4F
:101AE000DAE0C54B1B78002B72D1BD4B1B78532B12
:101AF00075D0522B00D1E9E04F2B00D1EFE0482BFD
:101B000000D1F2E0572B00D1F5E06F2B00D1F8E0C7
:101B1000682B00D1FBE0772B00D101E1472B00D1EE
:101B200007E1542B00D113E14E2B00D11AE1562BC3
:101B300000D09AE0AC4B99461B68DB680121AF48A6
:101B400098474B461B68DB680421AD4898474B46D5
:101B50001B68DB680121AB4898470022A54B1A603F
:101B6000A94AA24B1A60A3481A000368591C0160D5
:101B700013685E1C16601B78002BF6D19A4B9946B1
:101B80001B68DB68A14898474B461B68DB6801214E
:101B90009C4898470022974B1A609D4A934B1A60C5
:101BA00094481A000368591C016013685E1C166093
:101BB0001B78002BF6D18C4B99461B68DB68954847
:101BC00098474B461B68DB680221934898474CE0D6
:101BD000854B1B68DB6802218F48984785E7844B5B
:101BE0001B68844A1268934230D9804801680131E9
:101BF000016001327F490A60884909689B1A8B425B
:101C000000D90B00864A13600021864A1170002B10
:101C10001CD07249754A8348814B9C4613681B78D7
:101C20000E6833700B6801330B6013680133136067
:101C3000704B1B687B6001336E4E33600378013359
:101C4000DBB2037066463668B342E7D3694A13686D
:101C5000013B1360654A1368013B1360714B1B78AD
:101C60006E4A11688B4229D3C0467A225C4B1A70A7
:101C700000226A4B1A60604B1B78002B00D080E07A
:101C80002368013323605B4A136801331360584AA9
:101C900012689A4200D812E72B681B78FF2BF2D00B
:101CA000232B00D11DE71A00303A092A70D85B496E
:101CB0000A681201303B13430B60E1E7C91A474B36
:101CC0001868494B1B689B699847CDE7534B1968C7
:101CD000424B1868444B1B685B699847C5E73F4B0C
:101CE0001B684E4A12681A70BFE73C4B1B684B4A90
:101CF00012681A80B9E7394B1B68484A12681A60A3
:101D0000B3E7364B18680121474B9847ADE7434886
:101D1000324B1B681B8803600221434B9847A4E7A2
:101D20002E4B1B681B683D48036004213E4B9847BF
:101D30009BE73A4B18683D4B98473D4B1B6883F334
:101D4000088801223B4B1A70BFF35F8F62B68CE7A5
:101D50000122294B1A70244B1B68DB6802212E4894
:101D6000984782E7244B1B78002B03D00022224B9C
:101D70001A707AE71C4B1B68DB68022126489847DB
:101D8000F4E7194B1B68DB6801212B48984777E77C
:101D90001A00413A052A06D820490A681201373B41
:101DA00013430B606CE71A00613A052A06D81B49F9
:101DB0000A681201573B13430B6061E72C2B05D0D7
:101DC000424613700022154B1A6059E7134B034A21
:101DD0001968116000221A6052E7C04644010020D1
:101DE000FC0000200401002048010020F800002031
:101DF000F400002000010020500000201428000002
:101E000008280000182800001D2800001C280000D9
:101E10002928000028280000102800005001002078
:101E200054010020F0000020D9190000651A0000BC
:101E30004C010020000000203428000030B593B091
:101E40008023DB05009300230193FF2269460A816A
:101E50008B72CB7201222C216846425401314254CC
:101E60002D328354013283540C9305328354013252
:101E700083540E930F93059300220382C276079337
:101E80000384438402762423C25442761323837648
:101E90001333C254013BC254E1235B020A93C423AF
:101EA0009B030393254B1093254B1193254D264CF3
:101EB0006A4626492800A0470028F9D1214D2C6800
:101EC0002000234B98471F2318401E3B8340214A84
:101ED00013602A68D369002BFCD1236802221343C4
:101EE0002360184B1B68DA69002AFCD159688022EC
:101EF00052020A435A600121124AD171DA69002A5A
:101F0000FCD1DA69002AFCD15968802292020A4386
:101F10005A6001210B4A9171DA69002AFCD1002331
:101F20000D4A13700D4A13700D4A13700D4A137049
:101F30000D4A13700D4A137013B030BD03002A0010
:101F400003002B0060010020710C0000001400420F
:101F5000E10B000000E100E0580100201602002023
:101F6000590100205C01002017020020140200200B
:101F700010B581B20248034B9847012010BDC046FE
:101F80006001002021100000024B187E4007C00FA6
:101F90007047C0460014004210B582B0064CA047FE
:101FA0000028FCD06B469C1D21000448044B984738
:101FB000208802B010BDC046891F000060010020CB
:101FC0004D10000010B5064B98470023002801D1A2
:101FD000180010BD034B9847233843424341F7E7AD
:101FE000891F0000991F0000F8B50F1E07D0461882
:101FF0000400044D2078A8470134A642FAD13800E5
:10200000F8BDC046711F000010B50400024B984790
:102010002070012010BDC046991F000000024840FA
:102020000823084906E04000484080B2013B9BB2CB
:10203000002B05D002B2002AF5DB400080B2F5E7A4
:102040007047C04621100000F0B5DE4657464E46A8
:10205000C0B582B007000E1E2AD0002400230193D1
:10206000194B9A46194B9946194B9B4608E07B1C25
:102070003D701F00802E16D00134A4B2A6421BD0A2
:10208000D047C5B24B461B78002B13D101992800CD
:10209000D84701900F4B1B88002BE8D10E4B1B78C3
:1020A000002BE9D0E3E70B490A88013A0A80E3E70D
:1020B000019101E001230193019802B01CBC9146FB
:1020C0009A46A346F0BDC046991F000014020020A6
:1020D0001D2000005A01002015020020F0B585B037
:1020E00005000191022103A8174CA0478021280078
:1020F000A0470500154B1F78002F03D0002738009C
:1021000005B0F0BD124EB047000284B2B0472418AB
:10211000A4B20E4B1B78012BF1D0A54204D103AB26
:102120001B78019A934203D018200A4B9847E6E7A0
:10213000DB4303AA5278DBB29A42F5D10620054B65
:1021400098470127DBE7C046492000001402002021
:10215000991F0000711F0000F0B5DE4657464E463D
:102160004546E0B585B00500894600224A4B1A7005
:10217000002928D10132494B1A70494F464E34008C
:10218000B8473378002B2CD1C0B2432803D0712834
:1021900079D01528F4D1039501230293414B9B4636
:1021A000414B98461C003D4B9A460120D847029D62
:1021B0002800D847E843C0B2D847039D80270023B2
:1021C00001932E002EE0384B19800022334B1A70F9
:1021D0000B005B06D1D00B0080337F3293439946CE
:1021E000CBE7002323702E4B9847C0B22378002BF7
:1021F000CBD00022284B1A70002045E00022264B4D
:102200001A70002040E03578013B23800136280019
:10221000244B984701992800244B98470190013F8F
:10222000002F08D043461B88002BECD1524615786E
:10223000002DECD0E7E70500000AC0B2194EB04708
:10224000E8B2B047164B9847134B1B78002BD5D1FB
:10225000FF231840062809D1029B0133DBB2029309
:102260004B46803B9946039B803303934B46002BA0
:102270009BD104200B4B9847094B98470022074BF2
:102280001A70012000E0002005B03CBC9046994641
:10229000A246AB46F0BDC046140200201502002045
:1022A000991F0000711F00005A0100201D2000002E
:1022B000F0B5C64600B582B001900C0006202F4B49
:1022C00098470A212E4B9847009000222D4B1A70F8
:1022D000002C06D101322C4B1A7064252B4E2C4F4A
:1022E0000EE02C4B1C800022274B1A70F5E7013CB6
:1022F000B847002808D1002CF9D1013D002D3BD072
:102300004320B047009CF3E7002CF6D0019E012447
:10231000214F1C4D214B984612E00022194B1A7098
:10232000002002B004BC9046F0BD21003000C04740
:10233000144B1B78002B12D1012815D0002809D08E
:10234000B8472B78002BE8D1FF2318400128ECD0A8
:1023500004280DD000220C4B1A700120E1E7002266
:10236000084B1A700020DCE70134E4B28036E7E75E
:102370000620064B9847EDE70020D2E759120000EF
:10238000A12300001402002015020020711F00008C
:10239000891F00005A010020991F0000DD20000065
:1023A000002243088B4274D303098B425FD3030A94
:1023B0008B4244D3030B8B4228D3030C8B420DD3A7
:1023C000FF22090212BA030C8B4202D31212090235
:1023D00065D0030B8B4219D300E0090AC30B8B4273
:1023E00001D3CB03C01A5241830B8B4201D38B0321
:1023F000C01A5241430B8B4201D34B03C01A5241C6
:10240000030B8B4201D30B03C01A5241C30A8B4208
:1024100001D3CB02C01A5241830A8B4201D38B02F3
:10242000C01A5241430A8B4201D34B02C01A524197
:10243000030A8B4201D30B02C01A5241CDD2C30909
:102440008B4201D3CB01C01A524183098B4201D385
:102450008B01C01A524143098B4201D34B01C01A70
:10246000524103098B4201D30B01C01A5241C308E8
:102470008B4201D3CB00C01A524183088B4201D357
:102480008B00C01A524143088B4201D34B00C01A43
:102490005241411A00D20146524110467047FFE7AF
:1024A00001B5002000F006F802BDC0460029F7D0B3
:1024B00076E770477047C046F0B5CE4647461504EC
:1024C0002D0C2E0080B50704140C3F0C9946030C0C
:1024D0007E435D43674363437F19340CE4199C4694
:1024E000A54203D980235B029846C4444B4651431E
:1024F00043433604360C250C24046544A4195918AA
:10250000491920000CBC90469946F0BD70B50026D4
:102510000C4D0D4C641BA410A64209D1002600F0FE
:1025200099F90A4D0A4C641BA410A64205D170BD4E
:10253000B300EB5898470136EEE7B300EB589847E5
:102540000136F2E7602800006028000060280000E3
:1025500064280000002310B59A4200D110BDCC5C65
:10256000C4540133F8E7000001000000020000003D
:10257000040000000800000000100000002000001F
:102580000040000000800000000001000000020088
:10259000000004000000080000040042000800429F
:1025A000000C0042001000420014004200180042DB
:1025B0006A12000066120000661200009812000005
:1025C00098120000821200007012000088120000B1
:1025D000060504070628290000040042050301043B
:1025E0000300070303060302FFFFFFFFFFFF0000D6
:1025F00000440042FFFFFFFFFFFFFFFFFFFFFFFF61
:1026000021010920010800000028004009000908F4
:1026100000000B000B0A000A150005120002000062
:1026200006050407062829000004004205030104EA
:102630000300070303060302FFFFFFFFFFFF000085
:1026400000440042FFFFFFFFFFFFFFFFFFFFFFFF10
:1026500021010920010800000028004009000908A4
:1026600000000B000B0A000A150005120002000012
:102670000601001F1E212000000800420103010086
:1026800003001F03031E0302FFFFFFFFFFFF000005
:1026900000480042FFFFFFFFFFFFFFFFFFFFFFFFBC
:1026A000210109200108000000280040010001006C
:1026B00000001F000B1E000A210001200000000086
:1026C000060D0C0F0E101100000C00420D02010C43
:1026D00002000F02030E0202FFFFFFFFFFFF0000D8
:1026E000FFFFFFFFFFFFFFFFFFFFFFFFFFFFFFFFFA
:1026F000FFFFFFFFFFFF0000002800400D000D0C52
:10270000000C0F000F0E000E100000110001000061
:1027100006171619181314000010004217020116AC
:102720000200190203180202FFFFFFFFFFFF000073
:10273000FFFFFFFFFFFFFFFFFFFFFFFFFFFFFFFFA9
:10274000FFFFFFFFFFFF00000028004017000716F3
:10275000000619000D18000C1300031400040000FB
:10276000062D2C2F2E313000001400422D02012C9A
:1027700002002F02032E0202FFFFFFFFFFFF0000F7
:10278000FFFFFFFFFFFFFFFFFFFFFFFFFFFFFFFF59
:10279000FFFFFFFFFFFF0000002800402D000D2C71
:1027A000000C2F000F2E000E310001300000000041
:1027B000063F3E37361C1B00001800423F03013E17
:1027C0000300370303360302FFFFFFFFFFFF000094
:1027D000FFFFFFFFFFFFFFFFFFFFFFFFFFFFFFFF09
:1027E000FFFFFFFFFFFF0000002800403F000F3EFB
:1027F000000E3700073600061C00081B000F000003
:102800000002000002020000322E313600000000FB
:102810000A0D000076000000200000004A756C20C0
:10282000313220323031370031353A31373A3237B0
:10283000000000003E000000711F0000991F000012
:10284000891F0000E91F0000092000005921000035
:10285000B1220000F8B5C046F8BC08BC9E467047DF
:10286000E5000000F8B5C046F8BC08BC9E467047BD
:04287000BD000000A7
:04287400010000005F
:00000001FF
