S012000053414D4332312D4C45442E7372656389
S113000020220020350100003101000031010000F0
S113001000000000000000000000000000000000DC
S1130020000000000000000000000000310100009A
S11300300000000000000000310100003101000058
S11300403101000031010000E1150000A912000097
S11300503101000031010000ED1400003101000005
S113006031010000310100003101000031010000C4
S1130070310100003101000031010000D110000005
S113008031010000310100003101000031010000A4
S1130090692000007D2000003101000031010000D2
S11300A03101000031010000310100003101000084
S11300B031010000310100003101000010B5064C8F
S11300C02378002B07D1054B002B02D0044800E015
S11300D000BF0123237010BD3C000020000000007D
S11300E074270000084B10B5002B03D007490848BB
S11300F000E000BF07480368002B00D110BD064B89
S1130100002BFBD09847F9E70000000040000020D6
S113011074270000742700000000000010B5024B93
S11301209847024B984710BD29080000E5010000DC
S1130130FEE7000010B5174A174B9A4211D01A0077
S1130140164B9A420DD2164A03339B1A9B0801336D
S11301509B00002210480F498C58845004329A4264
S1130160FAD1104A104B9A420AD2D3430E495B1873
S113017003218B4304339B18002102C29342FCD118
S11301800A4AFF210A4B8B4393600A4B98470A4B58
S11301909847FEE774270000000000203C00002080
S11301A0040000203C0000201C02002000ED00E0C0
S11301B00000000001240000FD20000010B5034BE6
S11301C05B68002B00D0984710BDC0465800002043
S11301D010B5034B9B68002B00D0984710BDC04658
S11301E058000020034B1B68034A1A60034A5A60F4
S11301F00020704758000020BD010000D10100001C
S1130200064AD16980235B030B43D361044B40222C
S1130210842149005A5018315A5070470008004050
S1130220001C004010B5034B984703490348044B96
S1130230984710BD01020000005000423401002024
S113024029090000054AD16980239B020B43D3612D
S1130250402182235B00024AD150704700080040CD
S1130260001C004010B5054B9847054B9847020009
S113027004490548054B984710BDC0464502000097
S1130280BD0F0000004400425C0100205D09000035
S113029010B5054A936902210B439361034904484D
S11302A0044B984710BDC0460008004000200041A0
S11302B038010020550A000010B540218823054A62
S11302C0D150054A51698023DB000B435361034B32
S11302D0984710BD001C004000080040410B00007E
S11302E0024A136920210B43136170470008004040
S11302F010B5034B984703490348044B984710BD76
S1130300E102000000400041040100207D0B0000D8
S1130310034A516980239B000B4353617047C046D5
S11303200008004010B5034B984703490348044BA9
S1130330984710BD11030000002400406401002010
S1130340AD09000070B58223DB054820195C042246
S113035091431954195C0125A94301242143C9B2CD
S113036019541438195C0F26B1430D3E3143195406
S113037049215E5C96435E545A5CAA432243D2B23E
S11303805A541A5C3A390A4011310A431A5470BD5E
S1130390064B4021CC2299500331043A9950044A27
S11303A0D36941390B43D3617047C046001C0040F8
S11303B00008004010B5044B984704490448054B15
S11303C09847054B984710BD910300000004004274
S11303D0BC010020750C000045030000F0B5C646C2
S11303E000B5C022D205012090608223DB0521499B
S11303F09962C0273F069F6250614025595D814341
S113040001242143C9B259553026995D313DA8468E
S1130410A9430C3D2943995502219160164D9D62D3
S11304209F6251614127D95D81432143C9B2D955A6
S1130430995D323F39402137394399558021C902AA
S113044051600E4A9A620E4A9A6252215A5C2C3EBC
S1130450B2435A545A5C82432243D2B25A54193991
S11304605A5C404682430D3802435A5404BC9046B9
S1130470F0BDC04601000040020000400000024000
S1130480040002C0064B4021D02299500331083A9F
S11304909950044AD3693F390B43D3617047C0462E
S11304A0001C00400008004010B5044B9847044964
S11304B00448054B9847054B984710BD8504000038
S11304C0000800428C010020150D0000DD0300002F
S11304D0F0B5C64600B5C022D2058021490191601D
S11304E08223DB0521489862C0273F069F62516141
S11304F04C25595D0124A14301200143C9B259553A
S11305003626995D3D3DA846A9430D3D294399559D
S1130510802189019160164D9D629F6251614D2732
S1130520D95DA1430143C9B2D955995D3E3F3940D4
S11305301137394399558021C90051600D4A9A6297
S11305400D4A9A624A215A5C323EB2435A545A5C6A
S1130550A2430243D2B25A5415395A5C40468243EC
S11305600C3802435A5404BC9046F0BD00100040BD
S11305700020004000040240000002C0064B40215D
S1130580D422995003310C3A9950044AD3693B3927
S11305900B43D3617047C046001C00400008004074
S11305A010B5044B984704490448054B9847054B3C
S11305B0984710BD7D050000000C0042200100207A
S11305C0150D0000D104000070B58223DB05502016
S11305D0195C042291431954195C0125A94301248F
S11305E02143C9B219541838195C0F26B1430C3E83
S11305F03143195451215E5C96435E545A5CAA43BC
S11306002243D2B25A541A5C42390A4021310A4375
S11306101A5470BD064B4021D82299500331103A28
S11306209950044AD36933390B43D3617047C046A8
S1130630001C00400008004010B5044B98470449D2
S11306400448054B9847054B984710BD1506000014
S1130650001000423C010020750C0000C905000098
S113066010B50248024B984710BDC04610E000E0A8
S1130670C90A0000054AD16980235B010B43D36199
S11306804021F823024AD1507047C0460008004078
S1130690001C004010B5054B9847054B98470200D5
S11306A004490548054B984710BDC046750600002F
S11306B06520000000300042E8000020CD0C00005E
S11306C0054AD16980239B010B43D3614021F82360
S11306D0024AD1507047C04600080040001C004048
S11306E010B5054B9847054B984702000449054847
S11306F0054B984710BDC046C106000065200000A8
S113070000340042A0010020CD0C0000034A5169CE
S113071080235B000B4353617047C04600080040D0
S113072010B5064B9847522205490120054B9847BE
S11307300548064B0360064B984710BD0D070000A3
S113074048240000290E0000600100200020004021
S11307509120000010B5074A116980235B000B4308
S113076013614021E823044AD15004490448054B4D
S1130770984710BD00080040001C0040001C0042C7
S1130780B4000020050A0000054AD16980239B03B8
S11307900B43D361402188235B00024AD150704748
S11307A000080040001C004010B5034B9847034963
S11307B00348044B984710BD8907000000540042C9
S11307C080010020890A000010B5044AD369012180
S11307D00B43D361024B984710BDC046000800404C
S11307E0FD0A0000064A516980231B010B43536133
S11307F0044B4321902299500339043A995070478D
S113080000080040001C004010B5034B9847034902
S11308100348044B984710BDE5070000002C004036
S1130820DC000020C50B000070B5284B9847C0229F
S1130830D2058021090291608223DB052448986255
S1130840C0200006986251614F20195C0125A9431C
S113085019548020400550601E4999621E499962CE
S113086050605C215C5C042634435C5490615A5CA7
S1130870AA435A54194B9847194B9847194B984710
S1130880194B9847194B9847194B9847194B984758
S1130890194B9847194B9847194B9847194B984748
S11308A0194B9847194B9847194B9847194B984738
S11308B0194B9847194B9847194B9847194A51694E
S11308C080239B000B43536170BDC046451100005B
S11308D00080004000000240001002C02502000019
S11308E06502000091020000B9020000F10200005C
S11308F025030000B5030000A9040000A1050000C1
S1130900390600006106000095060000E1060000BB
S11309102107000055070000A9070000C9070000CF
S1130920090800000008004070B504000D0000280C
S11309300CD00800431E9841C0B23B220449054B29
S1130940984729002000044B984770BD0020F4E725
S113095064240000290E0000A50E000070B50400F8
S11309600D0000280CD00800431E9841C0B2432259
S11309700449054B984729002000044B984770BD53
S11309800020F4E780240000290E0000850F0000F9
S1130990EFF31083036072B6BFF35F8F7047BFF34A
S11309A05F8F036883F310887047000070B50400FC
S11309B00D00431E9841C0B2E52252000449054B84
S11309C098472560044B63612000044B984770BD31
S11309D09C240000290E0000B207000071150000DD
S11309E010B5C369002B00D0984710BD10B5036A39
S11309F0002B00D0984710BD10B5436A002B00D0DF
S1130A00984710BD70B505000C00002814D00800EC
S1130A10431E9841C0B24B220849094B9847210014
S1130A202800084B9847002805D1074B6B60074BFB
S1130A30AB60074BEB6070BD0020ECE7B82400000E
S1130A40290E0000C10F0000E1090000ED090000BB
S1130A50F909000070B504000D0000280CD008004E
S1130A60431E9841C0B235220449054B98472900DA
S1130A702000044B984770BD0020F4E7D424000004
S1130A80290E00000312000070B505000C000028B8
S1130A9011D00800431E9841C0B23C220749084BBC
S1130AA0984721002800074B9847002802D10023CB
S1130AB06B60AB6070BD0020EFE7C046F02400001F
S1130AC0290E0000C911000010B5024B1860024B3A
S1130AD0984710BD680000205D1E000010B5044B4F
S1130AE01C68044B984701002000034B984710BD35
S1130AF0680000203D110000711E000010B5014B7C
S1130B00984710BD6913000070B50C4B5C68A04297
S1130B100ED0012200210126FF2503E02A005318EC
S1130B205B080AD1A042F9D9002A06D03100F6E7C1
S1130B30024B1B68002B00D0984770BD6C0000204E
S1130B4010B5054B012252425A6000221A60034834
S1130B50034B984710BDC0466C000020090B0000F1
S1130B600912000010B54369002B00D0984710BD4E
S1130B7010B58369002B00D0984710BD70B50500EF
S1130B800C00002812D00800431E9841C0B2422233
S1130B900749084B984721002800074B984700282D
S1130BA003D1064B2B60064B6B6070BD0020EEE753
S1130BB00C250000290E00008D140000650B0000B8
S1130BC0710B000070B505000C00002811D008005E
S1130BD0431E9841C0B23B220A490B4B98472E0052
S1130BE0083621003000094B9847041E03D020002A
S1130BF070BD0020EFE7012149423000044B9847C3
S1130C002860F4E724250000290E000025140000C4
S1130C106114000010B584B0140001AB1438828B49
S1130C201A800294054A5A8003911900044B98478C
S1130C30002800D1200004B010BDC0460080FFFF92
S1130C400D17000010B584B0140001AB1438828B6A
S1130C501A800294054A5A8003911900044B98475C
S1130C60002800D1200004B010BDC0460180FFFF61
S1130C700D17000070B504000D00431E9841C0B26A
S1130C8068220749074B984729002000064B9847DC
S1130C90002803D1054BA361054B636170BDC046B9
S1130CA044250000290E0000DD160000450C00005C
S1130CB0150C000010B54369002B00D0984710BDF7
S1130CC010B58369002B00D0984710BD70B505009E
S1130CD00C00002811D00800431E9841C0B23D22E8
S1130CE00749084B984721002800074B9847074BB2
S1130CF02B60074B6B60002070BD0020EFE7C046FF
S1130D0060250000290E00004D1F0000B50C0000F6
S1130D10C10C000070B504000D00002816D00800B6
S1130D20431E9841C0B2422209490A4B98472560A4
S1130D3029002000084B9847002806DB074B238234
S1130D40074BE360074BA360002070BD0020EAE777
S1130D5078250000290E00008D1B00000080FFFF95
S1130D60ED0D0000B10D000030B587B004000D009A
S1130D70002814D00800431E9841C0B2BD2209497E
S1130D80094B98472B6803936B680493AB680193F2
S1130D90059303A92000054B984707B030BD0020F8
S1130DA0ECE7C04678250000290E00004D1D000028
S1130DB070B584B004000E001500431E9841C0B203
S1130DC0AD220749074B98470023029301960395E8
S1130DD02000083801A9044B984704B070BDC046F0
S1130DE078250000290E0000690D000070B584B05C
S1130DF004000E001500431E9841C0B29122074919
S1130E00074B984702960023019303952000083866
S1130E1001A9044B984704B070BDC0467825000072
S1130E20290E0000690D0000002800D100BE7047A3
S1130E3010B50400184BC01843425841C0B23022C8
S1130E40FF321649164B98470122236A1A42FCD1F5
S1130E500322236A1A42FCD123789B0718D4012267
S1130E60236A1A42FCD12378012213432370236A94
S1130E701A42FCD1C022D200226100232373626192
S1130E806373A261A373E261E3736380002010BD06
S1130E9011204042FBE7C04600B0FFBD942500008E
S1130EA0290E000070B505000C00431E9841C0B225
S1130EB08A220449044B98472C602000034B98472E
S1130EC070BDC04694250000290E0000310E0000BC
S1130ED030B50C000122038C1342FCD10322038C95
S1130EE01342FCD103789B0730D40122038C1342B4
S1130EF0FCD10378012213430370038C1342FCD109
S1130F00144DE200131B9B00EB1899784170D978BB
S1130F1081701979C170D988018119894181997ABF
S1130F200173D97A41739989C181D9890182198A56
S1130F304182598A81821B7D037700238362111BBE
S1130F40890069184B780370002030BD112040429D
S1130F50FBE7C046A825000010B5074B9C4660443B
S1130F60800AC0B2002804D0962204490020044B11
S1130F709847002010BDC04600BCFFBDC42500003A
S1130F80290E000070B505000C00431E9841C0B244
S1130F90DB220649064B98472C602000054B9847F6
S1130FA001002000044B984770BDC046C4250000D2
S1130FB0290E0000590F0000D10E000000207047D8
S1130FC0F0B501608B69012213438B61026801242F
S1130FD093691C42FCD09369022423439361344BEC
S1130FE0994210D00268936902218B43936102688D
S1130FF0936901398B439361016801228B691A4219
S1131000FCD10020F0BD2B4B1A0001C22A4981619A
S113101001688C698C61016800248C600168274D2B
S1131020CD610168264DCD60264D2D042D0C802107
S113103089020D43A0260768BD51BC25066874517A
S11310400C3506687451204D2D042D0C8026B604F1
S11310503543C0260768BD511204120C0A43F0251B
S113106006687251703D2822066872511A001432C3
S11310701204120C0A4384260768BA511C331B0459
S11310801B0C0B43882201688B5090230268D450B8
S11310900E4B802212025A51BFF34F8FBFF36F8F52
S11310A0C02149005A501A6003680122DA6599E7A1
S11310B0001C00427400002000000020070A020601
S11310C0330A0000DC010020FC01002000E100E004
S11310D070B5194B1D682B681C6DE30714D4A30568
S11310E016D4A30118D4E3011BD4230207D52B681B
S11310F0596C8906C90F01312800EB68984723070A
S113110014D42B681C6570BD2800AB689847E6E7CB
S113111028006B689847E4E703212800EB689847A8
S1131120E1E700212800EB689847DEE70421280066
S1131130EB689847E5E7C04674000020FA231B01DA
S11311405843704710B5084B5A685A60074B984784
S1131150074B9847074B9847074B9847074B9847C7
S1131160074B984710BDC0460040004121150000C0
S11311703915000081140000711400006D15000081
S1131180F5110000012203691A42FCD1032203690C
S11311901A42FCD103789B0712D4012203691A4234
S11311A0FCD1037801221343037003691A42FCD172
S11311B0002282700123437002700375002070477F
S11311C011204042FBE7000070B505000C00431EEF
S11311D09841C0B258220449044B98472C6020001F
S11311E0034B984770BDC046DC250000290E000063
S11311F0851100009022D205137802218B431370CD
S11312007047016000207047244901224B681A424C
S1131210FCD1224903224B681A42FCD11F4B1B7894
S11312209B0738D41D4901224B681A42FCD11B4A42
S1131230137801210B431370110001224B681A42E9
S1131240FCD1164903224B681A42FCD1134B1A787D
S113125010218A431A7000225A709A609A61DA61E6
S11312601A62190003324B681A42FCD10B4A1378F4
S113127002210B4313700A4B08227E315A50BFF3EC
S11312804F8FBFF36F8F0131FF315A501A60054BF6
S113129018600020704711204042FBE700280040FE
S11312A000E100E0A0000020F0B5D646474680B536
S11312B085B0274B5A690392039A5A61254B1868E3
S11312C0431E9841C0B20422FF322349234B98475E
S11312D0039B002B37D0224B9A46FF24214F0194C5
S11312E0984628E0013EF2B291420CD853185B10A4
S11312F0DEB22340DB00DB5D834204D09842F1DDA3
S11313000136F1B2F0E7039B2A0082409343039332
S11313100398C047013840B2431C04D0019B002607
S113132000210022EAE70A4B5A690392039A5A61A0
S1131330039B002B07D00398D047013840B2012506
S1131340431CEBD1EFE705B00CBC90469A46F0BDC8
S113135000280040A0000020FC250000290E000009
S1131360D5210000F425000010B50023104C842082
S1131370C005195D1A0020329200115001332F2B41
S1131380F7D100230A4830308424E4055A00115A66
S11313901A0008329200115101330C2BF6D1842328
S11313A0DB0500225A61013A1A61002010BDC046D3
S11313B01426000070B5040008000322E3681A42F2
S11313C0FCD12578AD07ED0F410CC003134A00236F
S11313D0134EB0470322E3681A42FCD12378022259
S11313E093432370E3681A42FCD10100FF2800D91B
S11313F0FF218BB26380002D0BD00322E3681A42D5
S1131400FCD123780222934313432370E3681A42E6
S1131410FCD102484843C00B70BDC04640420F0097
S11314209521000070B505000C00431E9841C0B220
S11314303E220949094B98472C600322E3681A426B
S1131440FCD123789B0703D4FF236380002070BD65
S113145011204042FBE7C0465C260000290E000034
S113146010B50068014B984710BDC046B513000085
S1131470014A024B1A62704706010100001C004039
S11314800122014B1A7170470008004070B5050035
S11314900C0000281DD0104BC81843425841C0B25C
S11314A04F220E490E4B98472C6162689E231340CD
S11314B063600C4B1D600C4B402280215A50BFF3DB
S11314C04F8FBFF36F8F0131FF315A501A600020E4
S11314D070BD0020E4E7C04600C0FFBE78260000CF
S11314E0290E0000A400002000E100E010B50B4B21
S11314F0186803691A7DD20706D501221A75036894
S1131500002B00D0984710BD1A7D9207FBD502220C
S11315101A754368002BF6D09847F4E7A40000201E
S1131520044BDA69F82149010A40DA6100221A61A0
S11315307047C046001400400B4B02221A75093252
S11315405A751900073A8B691A42FCD10722064BD7
S11315509A7519000932CB681A42FCD0024A137DED
S113156080210B4313757047001000407047000042
S113157010B5041E25D00068431E9841C0B23A221B
S11315801249134B9847134B1C60236801211A69B5
S11315901142FCD110491A690A42FCD11A889207F7
S11315A011D401211A691142FCD11A8801210A437C
S11315B01A80226813691942FCD1084B1380002059
S11315C010BD0020DBE711204042F9E79826000017
S11315D0290E0000A8000020038000000081FFFF06
S11315E010B5074B1C6823689B89DB0500D410BD2C
S11315F02000636898472368802252009A81F6E7A6
S1131600A800002010B50B4B9C466044800AC0B271
S113161000280CD0032807D0074A08490020084BAB
S113162098470120404210BD023840B2FBE7002039
S1131630FBE7C04600FCFFBDA10300000427000037
S1131640290E000070B505000C000800204B9847D7
S1131650C0B20122E3691A42FCD10322E3691A42AF
S1131660FCD123689B072FD40122E3691A42FCD1E1
S11316702368012213432360E3691A42FCD1430027
S11316801B18DA00134B9B18596821609A68626032
S1131690DB68E3608901890FA98101238B428941B9
S11316A049420422E3691A42FCD1636A0A4A1A4095
S11316B08B031343636243001818C000054B1818CA
S11316C0438AEB81002070BD11204042FBE7C046F5
S11316D005160000B0260000FFBFFFFF70B5040030
S11316E00D00431E9841C0B2A222D2000449054B0A
S11316F09847256129002000034B984770BDC046D8
S113170004270000290E000045160000F0B5DE464F
S11317104F464646C0B582B00500884604690600B7
S1131720731E9E41F3B2B64FB64A390001931800B6
S1131730B54EB0472869431E9841C0B2B34A390038
S1131740B0474046431E9841C0B2B14A3900B04741
S11317506B88DA0500D5E7E14246538880225200BF
S11317601343424653802A004146C1C9C1C22F696E
S11317703A689146A74AA2490198A34B98476B68D7
S1131780012B51D00422FB691A42FCD17B68A24A86
S113179013407B602B885A0553D56A88D20704D539
S11317A06A888021C9000A436A807A6A5B009B497F
S11317B00B408021C9011140802212020A431343C5
S11317C07B6229690B7EDBB2954A0320184204D15F
S11317D00B7EDBB2013A002AF8D13E680421FA6993
S11317E01142FCD17A8B92B2D90700D48BE09307D3
S11317F035D501233B766B88802149010B436B80EF
S11318006B8888490B406B800120030013405842C9
S1131810584105386B88834A13406B8002B01CBC66
S113182090469946A346F0BD4B461B01AAD5042217
S1131830FB691A42FCD17A688023DB0213437B6084
S1131840A8E76888796A5B00FF221340FE3A0240E9
S113185013438022D2010A4013437B62B1E753074A
S11318600ED46B885B0528D46B68002B40D16B8841
S11318701BB2002B32DB6B886A4A13406B806EE02C
S11318806B68002B04DD6B888022520113436B804C
S11318906B881BB2002B06DB6B88624A13406B809B
S11318A002204042B6E70423FA691342FCD17A6865
S11318B0C0239B0213437B60EEE77A6A2B88DB0923
S11318C006210B408021C9010A40F1210A43134338
S11318D07B626B88544A13406B8040E00422FB69AE
S11318E01A42FCD17A68C0239B0213437B60C2E78F
S11318F0AB681A782823FA54AB680133AB606B6881
S1131900013B6B602BE09B0729D56B68002B3AD019
S1131910520738D43601F60F013B6B60002B00D020
S113192005E1002E0BD10422FB691A42FCD17A682E
S11319308023DB0213437B606B68002B07D16B8829
S11319401BB2002B15DB6B88364A13406B80AB68E7
S11319505A1CAA602822BA5C1A7002233B76002023
S113196080235B009B4603220421FF3B9946022609
S1131970B0E00422FB691A42FCD17A68C0239B02BE
S113198013437B60DFE702233B760220404241E7BA
S11319900422E3691A42FCD16268C0239B02134308
S11319A06360ADE039420FD16B885B053ED46B6850
S11319B0002B56D16B881BB2002B49DB6B8819486E
S11319C003406B80002085E06B68002B04DD6B888E
S11319D08020400103436B806B881BB2002B05DB26
S11319E06B88104803406B80FF3073E0E369194251
S11319F0FCD16068C0239B0203436360F0E7C046E8
S1131A0004270000CA050000290E0000CB050000D1
S1131A10CC0500009F050000FFFFFBFFFE07000050
S1131A20FFFF0000FFFEFFFFFFFBFFFF636A288844
S1131A30C009062738408027FF013B40F1273B437C
S1131A40034363626B884E4803406B80002041E08F
S1131A50E3691942FCD16068C0239B0203436360BD
S1131A60ACE7AB6818782823E054AB680133AB606B
S1131A706B68013B6B6000202CE000201E4229D0E3
S1131A806B68002B4CD039424AD16046C00E4F4699
S1131A903840013B6B60002B6DD100280AD1E3690B
S1131AA01942FCD163688020C002034363606B6801
S1131AB0002B07D16B881BB2002B28DB6B883148C5
S1131AC003406B80AB68581CA8602820205C187009
S1131AD0267600206B885F463B4200D19EE62F6944
S1131AE03B7EDBB228481A4228D13B7EDBB2013868
S1131AF00028F8D143465B881BB2002B00DA47E785
S1131B006B88204A13406B800520404286E6E369D7
S1131B101942FCD16068C0239B0203436360CDE794
S1131B20267602204042D5E70620404276E6012B85
S1131B3000D00CE7002E00D109E7F4E620688446C3
S1131B40E0690142FCD1678BBFB24846184294D089
S1131B503E4200D126E720766B8880204001034373
S1131B606B806B88074803406B804B461F4078426C
S1131B7078410538AEE7012BA4D10028A2D08EE726
S1131B80FFFBFFFFFFFEFFFFFFFF000070B5060035
S1131B900C00634BCB189B0ADBB2012B00D171E024
S1131BA0022B08D0002800D1AAE0002900D0AFE021
S1131BB0002500200AE0013B1D01EB18594D30358A
S1131BC0ED18002EF5D00120002CF2D0564A5749CA
S1131BD0574B9847002D00D18CE00122E3691A424B
S1131BE0FCD10322E3691A42FCD123689B0700D588
S1131BF083E00122E3691A42FCD1236801221343E2
S1131C002360E3691A42FCD134602B781C22134010
S1131C10082B39D02000431E9841C0B2454A43499D
S1131C20434B98472B786A7812021A43AB781B040B
S1131C301A43EB781B0613433F4A134023602B7966
S1131C406A7912021A43AB791B041A43EB791B0617
S1131C5013433A4A134080229202134363602B7B5E
S1131C6023736A7B3023E2542B79072213405A1ED4
S1131C70934101333371AA7BEB7B1B021343F38043
S1131C80002070BD002397E72000431E9841C0B296
S1131C902B4A2649264B98472B786A7812021A4316
S1131CA0AB781B041A43EB781B061343224A1340F8
S1131CB023602B796A7912021A43AB791B041A4305
S1131CC0EB791B0613431F4A13401F4A13436360F7
S1131CD02B7A6A7A12021A43AB7A1B041A43EB7A00
S1131CE01B06134363626A7B3023E254E369002BCF
S1131CF0FCD1B9E70D204042C3E711204042C0E7C0
S1131D00094A0A4900200A4B98470D204042B8E787
S1131D10054A06490120064B98470D204042B0E78A
S1131D2000FCFFBDB02600001509000004270000D8
S1131D30290E0000DF080000FCFEFFFFBF1DFDFFB1
S1131D40F3080000BFDDFDFF40020200F0B5DE46EF
S1131D5057464E464546E0B583B081460E000468BA
S1131D600B6898464D6803790193002815D020002C
S1131D70431E9841C0B2364A3649374B9847E36907
S1131D805B073FD10323E0691840FCD123689B071C
S1131D903BD5020001239C4609E00020EBE7013516
S1131DA001325BB2002B16DBB368834227D9237E52
S1131DB0DBB2042119422BD0A76A002DF0D02F707A
S1131DC001990129EBD93F0A6F700235E8E7012137
S1131DD08B46D84437E001235B4263838133237607
S1131DE0132040420322237E1342FCD00323237694
S1131DF003B03CBC90469946A246AB46F0BD934224
S1131E00D5D8EFE704204042F2E714204042EFE740
S1131E109042C6D867461F42C3D04F46FF88BA4691
S1131E204746002F0FD03F78BA4601990129CED9F1
S1131E3047467F783F02BB46574659460F43BA464A
S1131E4002218B46D84401305746A762A9E7C04611
S1131E50710A000004270000290E0000024B034A07
S1131E605A6005221A60704710E000E0FFFFFF008F
S1131E7070B50B0E5E1EF6B2002B13D034000E4A62
S1131E800E4D802040025560956013680342FCD0DB
S1131E90013CE4B2FF2CF6D13306F61A084B9C46FB
S1131EA061447118044B59609960190080225202F0
S1131EB00B681342FCD070BD10E000E0FFFFFF0090
S1131EC0010000FF70B505000469A37ADB0705D59E
S1131ED00123A3720368002B00D09847637A9B0701
S1131EE006D50223A3726B68002B01D02800984703
S1131EF070BD000010B5104B984215D00F4B9C4696
S1131F006044800AC0B20E4B1B78834211D00C4B44
S1131F101B7D83420AD06622FF320A4900200A4B05
S1131F2098470120404210BD0420EBE7012040B255
S1131F30F9E70020FBE7C0460040004200D0FFBDA7
S1131F401400002020270000290E000070B50500B1
S1131F500C0008003D4B98472C61012223691A426A
S1131F60FCD1032223691A42FCD123689B0764D461
S1131F70012223691A42FCD12368012213432360FE
S1131F8023691A42FCD183001B189A00304B9B181A
S1131F905A682260997AE1731B89E38003232373CF
S1131FA009331340082B38D0002B49D183001B1868
S1131FB09B00274AD3189A89A2831B8AE383254B63
S1131FC09C4234D0244B9C4234D083001B189B0089
S1131FD01F4AD3185B785BB2002B34DB1F221A40F4
S1131FE00123934080221D498B50BFF34F8FBFF3D1
S1131FF06F8F830018188000154B18180123C356DF
S11320000020002B08DB613A1A40012393400A00A8
S1132010C02149005350136070BD83001B189B00FE
S11320200B4AD318DA68E2611B692362C7E70C4BD9
S11320301D60CAE70A4B5D60C7E711204042EBE729
S113204001204042E8E70020E6E7C046F51E000014
S113205014000020003000420034004200E100E09F
S1132060AC0000200020704710B5024B1868024BEA
S1132070984710BDAC000020C51E000010B5024BEF
S11320805868024B984710BDAC000020C51E0000E4
S113209010B5041E25D00068431E9841C0B25A22D0
S11320A01449154B984723680E219A681142FCD1B4
S11320B01A78D20917D10E219A681142FCD11A78E4
S11320C0920713D40E219A681142FCD11A78042184
S11320D08A431A70226853780B318B435370002063
S11320E010BD0020DBE711204042F9E711204042F7
S11320F0F6E7C04634270000290E0000F0B5D646A6
S11321004F464646C0B582B01E4B9847C022D20502
S11321108021490551608224E4055C20235C042568
S11321202B4323549161184B9846184F1500184EB1
S11321306420C0476846B8472C688223DB051A6AC6
S11321402B6953401C4054406846B047E300EFD429
S113215080231B02EB610C4B9A460C4B99460C4EA8
S11321606420D04701A8C8472C688223DB051A6A7B
S11321702B6953401C40544001A8B047E300EFD5FD
S1132180D5E7C0461D010000DD0A000091090000EA
S11321909F090000002B11D1002A0FD1002900D182
S11321A0002802D00021C943081C07B4024802A138
S11321B04018029003BDC046B101000003B4684654
S11321C001B5029800F010F8019B9E4602B00CBCC9
S11321D07047C04610B50023002802D000F0F0F884
S11321E0431C180010BDC046F0B557464E46454640
S11321F0DE46E0B5040083B00D00924699468B425A
S11322002FD82CD04946504600F0CEF829000600BD
S1132210200000F0C9F8331A9846203B9B4600D5AD
S113222074E053465A4693401F0053464246934037
S11322301E00AF4229D826D05B46A41BBD41002B0B
S113224000DA79E0002200230092019301235A4628
S113225093400193012342469340009319E0824244
S1132260D0D900220023009201930C9B002B01D0B3
S11322701C605D600098019903B03CBC904699468F
S1132280A246AB46F0BDA342D6D900220023009259
S113229001934346002BE8D0FB0772081A434646D5
S11322A07B080EE0AB4201D1A2420CD8A41A9D4196
S11322B0012024196D410021013E24184D41002EB6
S11322C006D0AB42EED9013E24196D41002EF8D15F
S11322D05B460098019900196941002B22DB2B0011
S11322E05A46D3402A004446E2401C005B4615008F
S11322F0002B2CDB26009E40330026004746BE40C0
S11323003200801A994100900191AEE742462023A1
S11323109B1A5246DA40414613004A468A40170047
S11323201F4382E7424620239B1A2A0046469A40CE
S11323302300F3401343D5E74246202300219B1A90
S11323400022009101920122DA40019282E7424682
S1132350202326009B1ADE402F00B4469740664691
S11323603B003343C9E7C0467047C0461C210123E4
S11323701B04984201D3000C10391B0A984201D364
S1132380000A08391B09984201D30009043902A242
S1132390105C40187047C0460403020201010101A9
S11323A0000000000000000010B5002903D1FFF771
S11323B0DDFF203002E0081CFFF7D8FF10BDC04647
S11323C0414208401C2101231B04984201D3000C04
S11323D010391B0A984201D3000A08391B09984294
S11323E001D30009043902A2105C401A7047C046A8
S11323F01B1C1D1D1E1E1E1E1F1F1F1F1F1F1F1FF8
S113240070B500260C4D0D4C641BA410A64209D1D6
S1132410002600F09BF90A4D0A4C641BA410A64246
S113242005D170BDB300EB5898470136EEE7B30011
S1132430EB5898470136F2E7582700005827000068
S1132440582700005C2700002E2E2F68616C2F692E
S11324506E636C7564652F68616C5F7764742E6855
S1132460000000002E2E2F68616C2F7372632F689A
S1132470616C5F61635F73796E632E6300000000BB
S11324802E2E2F68616C2F7372632F68616C5F61ED
S113249064635F73796E632E630000002E2E2F68D1
S11324A0616C2F7372632F68616C5F63616C656E1E
S11324B06461722E630000002E2E2F68616C2F73EE
S11324C072632F68616C5F63616E5F6173796E63C1
S11324D02E6300002E2E2F68616C2F7372632F6899
S11324E0616C5F6372635F73796E632E63000000D7
S11324F02E2E2F68616C2F7372632F68616C5F647A
S113250061635F73796E632E630000002E2E2F6863
S1132510616C2F7372632F68616C5F666C617368A2
S11325202E6300002E2E2F68616C2F7372632F6848
S1132530616C5F667265716D657465725F73796EE7
S1132540632E63002E2E2F68616C2F7372632F68C5
S1132550616C5F6932635F6D5F73796E632E6300D4
S11325602E2E2F68616C2F7372632F68616C5F70FD
S1132570776D2E63000000002E2E2F68616C2F7380
S113258072632F68616C5F7370695F6D5F73796EDE
S1132590632E63002E2E2F68706C2F61632F68707A
S11325A06C5F61632E630000000000000000000007
S11325B00000000000000000000000000000000017
S11325C0000000002E2E2F68706C2F6164632F684A
S11325D0706C5F6164632E63000000002E2E2F6810
S11325E0706C2F6461632F68706C5F6461632E6329
S11325F000000000FF000000FFFFFFFF2E2E2F68E9
S1132600706C2F6569632F68706C5F6569632E63F6
S113261000000000000000000000000000000000B6
S113262000000000000000000000000000000000A6
S11326300000000000000000000000000000000096
S11326400000000000000000000000000000000086
S11326500000000000000000000000002E2E2F6883
S1132660706C2F667265716D2F68706C5F66726531
S1132670716D2E63000000002E2E2F68706C2F6E7B
S1132680766D6374726C2F68706C5F6E766D6374B4
S1132690726C2E63000000002E2E2F68706C2F7257
S11326A074632F68706C5F7274632E6300000000A3
S11326B00000000014002000000100000E0F0000C4
S11326C00000D70000093D000300000014002000B2
S11326D0000100000E0F00000000D70000093D00BB
S11326E00C00200000000200000000002700FF0191
S11326F0010C00200000000200000000002700FF81
S1132700010200002E2E2F68706C2F736572636FA8
S11327106D2F68706C5F736572636F6D2E6300005C
S11327202E2E2F68706C2F74632F68706C5F746327
S11327302E6300002E2E2F68706C2F7764742F6820
S1132740706C5F7764742E6300000000F8B5C046B7
S1132750F8BC08BC9E467047E5000000F8B5C046CA
S10F2760F8BC08BC9E467047BD00000099
S10B276C7CFAFF7F010000006C
S1132774DC010020FC0100207800002088000020F7
S1132784900000200014000000000000000000324B
S11327949F0F0000CF070000011500000000000097
S10F27A4000000329F0F0000CF0700006F
S9030000FC
